S01200004F7064726163687420322E737265638B
S113000045C000004BC0000049C0000047C00000CC
S113001045C0000043C0000041C000003FC00000D4
S11300203DC000003BC0000039C0000037C00000E4
S113003035C0000033C0000031C000002FC00000F4
S11300402DC000002BC0000029C0000027C0000004
S113005025C0000023C0000021C000001FC0000014
S11300601DC000001BC0000019C0000017C0000024
S113007015C0000013C0000011C000000FC0000034
S11300800DC000000BC0000009C0000011241FBEF9
S1130090CFEFD0E1DEBFCDBF95D0D5C0B1CF20E04A
S11300A030E008C0EFECF7E03197F1F700C0000052
S11300B02F5F3F4F28173907ACF308958FEF87BBA5
S11300C087B3877F87BB88B3816088BB82E58DB99E
S11300D008958FB9779BFECF089598B321E030E05F
S11300E002C0220F331F8A95E2F72095292328BBEB
S11300F0089598B321E030E002C0220F331F8A959F
S1130100E2F7292B28BB0895CF93DF93D82FC62F6E
S113011080E0E3DF8D2FDDDF8C2FDBDF80E0E9DFA4
S1130120DF91CF9108956FEF89E0EEDF6FE08AE011
S1130130EBDF64E08BE0E8DF61E08CE0E5CF08957D
S1130140EF92FF920F931F93CF93DF93EC019923C8
S113015074F411C0CE016AE070E04ED0F62E072F81
S1130160682F812FD1DFCF2DD02F1F5F01C011E069
S1130170153080F320C089519C4F873E9340A8F0EE
S11301801AC0882799278C1B9D0B0F2EFAE0EF2E9F
S1130190F12CF02DB70130D0682F812FB5DFCE01BF
S11301A0B7012AD0EB011F5F01C011E0143048F3FE
S11301B06AE084E0A9DFDF91CF911F910F91FF9056
S11301C0EF900895CF9381E087BB78DFACDFC1E087
S11301D004C060E08C2F98DFCF5FC530D0F388EE89
S11301E093E05DDF85E69AE1ABDF88EE93E057DFCD
S11301F081E090E0CF91089597FB072E16F40094C8
S113020006D077FD08D00BD007FC05D03EF49095BE
S113021081959F4F0895709561957F4F0895AA1B0E
S1130220BB1B51E107C0AA1FBB1FA617B70710F0DD
S1130230A61BB70B881F991F5A95A9F7809590950F
S10D0240BC01CD010895F894FFCF2E
S9030000FC
