:1000000045C0000058C0000056C0000054C00000A9
:1000100052C0000050C000004EC000004CC00000A4
:100020004AC0000048C0000046C0000044C00000B4
:1000300042C0000040C000003EC000003CC00000C4
:100040003AC0000038C0000036C0000034C00000D4
:1000500032C0000030C000002EC000002CC00000E4
:100060002AC0000028C0000026C0000024C00000F4
:1000700022C0000020C000001EC000001CC0000004
:100080001AC0000018C0000016C0000011241FBED6
:10009000CFEFD0E1DEBFCDBF11E0A0E0B1E0ECE9F1
:1000A000F1E000E00BBF02C007900D92A430B10751
:1000B000D9F74CD071C0A4CF85B3886085BB8FECD5
:1000C00097E00197F1F700C0000085B3877F85BBFB
:1000D0008FEC97E00197F1F700C000000895CF93EF
:1000E000C82F807F85BBE8DFC295C07FC5BBE4DF3A
:1000F000CF9108958FEF84BB15BA88E2F0DF81E0DD
:10010000EEDF8CE0ECDF8FE0EACF08958058E7CF98
:100110000895CF93C82F807F85BB85B3846085BB4E
:10012000CBDFC295C07FC5BB85B3846085BBC4DF10
:10013000CF910895CF93DF93EC0102C0EADF2196BF
:1001400088818111FBCFDF91CF910895D3DF80E0CB
:1001500091E0F0DF80E090E0D9DFC0E0D0E018C0AF
:10016000CE01D4DF2FE78AE196E021508040904015
:10017000E1F700C0000080E091E0DCDF2FE78AE1DA
:1001800096E0215080409040E1F700C000002196A9
:0C019000C032D1052CF3E1CFF894FFCF72
:04019C006865790019
:00000001FF
