S014000045696E644F706472616368742E737265635B
S113000045C00000DEC000005EC000005CC000000F
S11300105AC0000058C0000056C0000054C0000080
S113002052C0000050C000004EC000004CC0000090
S11300304AC0000048C0000046C0000044C00000A0
S113004042C0000040C000003EC000003CC00000B0
S11300503AC0000038C0000036C0000034C00000C0
S113006032C0000030C000002EC000002CC00000D0
S11300702AC0000028C0000026C0000024C00000E0
S113008022C0000020C000001EC0000011241FBEBA
S1130090CFEFD0E1DEBFCDBF11E0A0E0B1E0E0E9F9
S11300A0F8E000E00BBF02C007900D92A638B1073C
S11300B0D9F721E0A6E8B1E001C01D92A139B20749
S11300C0E1F7D0D0E3C39CCF85B3886085BB8FECC8
S11300D097E00197F1F700C0000085B3877F85BBE7
S11300E08FEC97E00197F1F700C000000895CF93DB
S11300F0C82F807F85BBE8DFC295C07FC5BBE4DF26
S1130100CF9108958FEF84BB15BA88E285BBDCDFFD
S113011081E0EDDF8CE0EBDF8FE0E9CF089581E053
S1130120E6CF0895CF93C82F807F85BB85B38460C5
S113013085BBCADFC295C07FC5BB85B3846085BB60
S1130140C3DFCF910895CF93DF93EC0102C0EADFC0
S1130150219688818111FBCFDF91CF91089520E012
S113016030E00FC0F901EE0FFF1FE20FF31FE60F9F
S1130170F71F9081981303C08181928108952F5FA6
S11301803F4F2A31310574F383E591E008950297D6
S113019054F4FB01808190E0880F991F880F991F08
S11301A08160808309C0FB01808190E0880F991FE2
S11301B0880F991F83608083CB010895FC0110820E
S11301C008951F920F920FB60F9211240BB60F923F
S11301D02F933F934F935F936F937F938F939F934B
S11301E0AF93BF93EF93FF938FE19EE40197F1F7F1
S11301F000C0000080B3982F917080FD11C08091E1
S11302008801813069F410928801109289016AE8AA
S113021071E08091860190918701B9DF18BA0FC00F
S1130220913069F480918801811109C081E0809343
S11302308801809389011092870110928601FF91B1
S1130240EF91BF91AF919F918F917F916F915F914A
S11302504F913F912F910F900BBE0F900FBE0F90B7
S11302601F9018958FEF87BB8EB588608EBD83E194
S113027093E19BBD8ABD8EB585608EBDEAE6F0E054
S113028080818160808389B7816089BF78943ADFF7
S113029046DF06B604FEFDCF80E186BF8EE491E022
S11302A09F938F9333D0809189010F900F9088236F
S11302B069F028B381E090E00090860102C0880FC5
S11302C0991F0A94E2F7822B88BB16C0809186019D
S11302D0909187018730910521F482E591E033DF25
S11302E00BC0039749F460E071E080918A0137DF25
S11302F02ADF8AE891E062DF80918601909187018C
S113030001969093870180938601C3CFCF93DF93A7
S1130310CDB7DEB7AE014B5F5F4FFA0161917191CA
S1130320AF0180918D0190918E0103D0DF91CF9127
S113033008952F923F924F925F926F927F928F9285
S11303409F92AF92BF92CF92DF92EF92FF920F9360
S11303501F93CF93DF93CDB7DEB72B970FB6F894E7
S1130360DEBF0FBECDBF6C017B018A01FC01178289
S11303701682838181FFBFC1CE0101963C01F60143
S11303809381F70193FD859193FF81917F018823E8
S113039009F4ADC1853239F493FD859193FF8191C0
S11303A07F01853221F4B60190E0D6D1E8CF912CBB
S11303B0212C312CFFE1F315D8F08B3279F038F48D
S11303C0803279F08332A1F4232D20611DC08D3257
S11303D061F0803369F4232D216016C0832D82607F
S11303E0382EE32DE4603E2E2AC0F32DF8601DC0A4
S11303F037FC2DC020ED280F2A3040F08E32B9F49E
S113040036FC75C1232D2064322E19C036FE06C079
S11304108AE0989E200D1124922E11C0EAE02E9EAF
S1130420200D1124222EF32DF0623F2E08C08C36AD
S113043021F4832D8068382E02C0883641F4F701F8
S113044093FD859193FF81917F018111B3CF982F03
S11304509F7D9554933028F40C5F1F4F9FE399833D
S11304600DC0833631F0833771F0833509F055C000
S113047020C0F801808189830E5F1F4F88248394F4
S1130480912C530112C02801F2E04F0E511CF801C7
S1130490A080B18036FE03C0692D70E002C06FEF0A
S11304A07FEFC5014ED14C018201F32DFF773F2E22
S11304B015C0280122E0420E511CF801A080B18031
S11304C036FE03C0692D70E002C06FEF7FEFC501F7
S11304D02DD14C01F32DF0683F2E820133FC19C05D
S11304E0822D90E088169906A0F4B60180E290E08F
S11304F033D12A94F5CFF50137FC859137FE8191EC
S11305005F01B60190E028D121102A9421E0821ADB
S113051091088114910479F7E1C0843611F0893689
S113052039F5F80137FE07C06081718182819381BA
S11305300C5F1F4F08C060817181072E000C880B6F
S1130540990B0E5F1F4FF32DFF763F2E97FF09C0C7
S113055090958095709561957F4F8F4F9F4FF06870
S11305603F2E2AE030E0A30133D1882E861844C000
S1130570853731F4232D2F7EB22E2AE030E025C0BA
S1130580932D997FB92E8F36C1F018F4883579F000
S1130590AEC0803719F0883721F0A9C0E92FE06197
S11305A0BE2EB4FE0DC0FB2DF460BF2E09C034FE78
S11305B00AC0292F2660B22E06C028E030E005C00C
S11305C020E130E002C020E132E0F801B7FE07C0CC
S11305D060817181828193810C5F1F4F06C06081AD
S11305E0718180E090E00E5F1F4FA301F1D0882E4F
S11305F08618FB2DFF773F2E36FE0DC0232D2E7F50
S1130600A22E891458F434FE0BC032FC09C0832D89
S11306108E7EA82E05C0B82CA32C03C0B82C01C014
S1130620B92CA4FE0FC0FE01E80DF11D80818033BA
S113063021F49A2D997EA92E09C0A2FE06C0B39476
S1130640B39404C08A2D867809F0B394A3FC10C037
S1130650A0FE06C0B21480F4280C922C9B180DC086
S1130660B21458F4B60180E290E076D0B394F8CF97
S1130670B21418F42B1802C0982C212CA4FE0FC01D
S1130680B60180E390E068D0A2FE16C0A1FC03C0CE
S113069088E790E002C088E590E0B6010CC08A2D9E
S11306A0867851F0A1FE02C08BE201C080E2A7FC73
S11306B08DE2B60190E050D0891430F4B60180E3A5
S11306C090E04AD09A94F8CF8A94F301E80DF11D92
S11306D08081B60190E040D08110F6CF222009F449
S11306E04ECEB60180E290E037D02A94F7CFF601DF
S11306F08681978102C08FEF9FEF2B960FB6F894F7
S1130700DEBF0FBECDBFDF91CF911F910F91FF9040
S1130710EF90DF90CF90BF90AF909F908F907F909D
S11307206F905F904F903F902F900895FC0105903B
S1130730615070400110D8F7809590958E0F9F1FDF
S11307400895FC016150704001900110D8F7809524
S113075090958E0F9F1F08950F931F93CF93DF9350
S1130760FB01238121FD03C08FEF9FEF2CC022FFEB
S113077016C046815781248135814217530744F4BA
S1130780A081B1819D012F5F3F4F318320838C93E2
S1130790268137812F5F3F4F3783268314C08B0117
S11307A0EC01FB010084F185E02D0995892BE1F62C
S11307B0D80116968D919C911797019617969C9344
S11307C08E931697CE01DF91CF911F910F910895CB
S11307D0FA01AA27283051F1203181F1E8946F936E
S11307E06E7F6E5F7F4F8F4F9F4FAF4FB1E03ED014
S11307F0B4E03CD0670F781F891F9A1FA11D680FB2
S1130800791F8A1F911DA11D6A0F711D811D911DE4
S1130810A11D20D009F468943F912AE0269F112459
S11308203019305D3193DEF6CF010895462F4770BD
S1130830405D4193B3E00FD0C9F7F6CF462F4F7018
S1130840405D4A3318F0495D31FD4052419302D076
S1130850A9F7EACFB4E0A69597958795779567951C
S1130860BA95C9F700976105710508959B01AC011C
S11308700A2E06945795479537952795BA95C9F743
S1130880620F731F841F951FA01D0895F894FFCF56
S1130890075401D55601DD5801355A01015C015D4B
S11308A05E013D60015562010564017F66013768A0
S11308B001756A010F6C010D6E013F70017D7201BB
S11308C0F774011D7601157801037A01177C01572D
S11308D07E011F8001D78201DF5001F58401686524
S11308E07900200061006200630064006500660016
S11308F06700680069006A006B006C006D006E00A0
S11309006F0070007100720073007400750076004F
S1090910770078007A0074
S9030000FC
