:1000000045C00000C0C000005EC000005CC0000031
:100010005AC0000058C0000056C0000054C0000084
:1000200052C0000050C000004EC000004CC0000094
:1000300093C0000048C0000046C0000044C000005B
:1000400042C0000040C000003EC000003CC00000B4
:100050003AC0000038C0000036C0000034C00000C4
:1000600032C0000030C000002EC000002CC00000D4
:100070002AC0000028C0000026C0000024C00000E4
:1000800022C0000020C000001EC0000011241FBEBE
:10009000CFEFD0E1DEBFCDBF11E0A0E0B1E0ECE7F3
:1000A000F2E000E00BBF02C007900D92AA30B1074A
:1000B000D9F721E0AAE0B1E001C01D92A131B20759
:1000C000E1F7D2D0D9C09CCF85B3886085BB8FECD7
:1000D00097E00197F1F700C0000085B3877F85BBEB
:1000E0008FEC97E00197F1F700C000000895CF93DF
:1000F000C82F807F85BBE8DFC295C07FC5BBE4DF2A
:10010000CF9108958FEF84BB15BA88E285BBDCDF01
:1001100081E0EDDF8CE0EBDF8FE0E9CF0895CF9356
:10012000C82F807F85BB85B3846085BBCDDFC2953A
:10013000C07FC5BB85B3846085BBC6DFCF91089502
:10014000CF93DF93EC0102C0EADF21968881811111
:10015000FBCFDF91CF9108951F920F920FB60F92B0
:1001600011248F939F9380910F019091100101961C
:100170009093100180930F019F918F910F900FBE6C
:100180000F901F9018951F920F920FB60F92112487
:100190002F933F938F939F93829909C080910F0172
:1001A0009091100190930E0180930D0150C08091A9
:1001B0000F019091100120910D0130910E01821BD1
:1001C000930B88352BE1920740F010920C011092AE
:1001D0000B0181E080930A013AC0883B2BE0920733
:1001E00078F080910B01882391F180910C01880FA8
:1001F00080930C0180910B018F5F80930B0127C0CE
:10020000883E934080F080910C01880F80930C0110
:1002100080910C01816080930C0180910B018F5FB4
:1002200080930B0114C080910C01880F80930C0106
:1002300080910C01816080930C0180910C01880FEA
:1002400080930C0180910B018F5F80930B011092C2
:100250000E0110920D019F918F913F912F910F9060
:100260000FBE0F901F9018954DDF82E091E068DF80
:0C02700082E091E065DFFCCFF894FFCF46
:0A027C002A0068616C6C6F2000001E
:00000001FF
