:1000000045C0000053C0000088C00000ADC0000023
:100010004DC000004BC0000049C0000047C00000B8
:1000200045C0000043C0000041C000003FC00000C8
:100030003DC000003BC0000039C0000037C00000D8
:1000400035C0000033C0000031C000002FC00000E8
:100050002DC000002BC0000029C0000027C00000F8
:1000600025C0000023C0000021C000001FC0000008
:100070001DC000001BC0000019C0000017C0000018
:1000800015C0000013C0000011C0000011241FBEE5
:10009000CFEFD0E1DEBFCDBF21E0A0E0B1E001C0F5
:1000A0001D92A230B207E1F702D085C0A9CF80EF40
:1000B00081BB8FEF8ABBEAE6F0E080818C628083AF
:1000C00089B7866089BF7894FFCF809100019091B5
:1000D000010188309105E4F44BB321E030E0B9012F
:1000E00002C0660F771F8A95E2F7CB0184278BBB8E
:1000F00080910001909101010196909301018093FC
:1001000000018FE19EE40197F1F700C0000008951F
:10011000109201011092000108951F920F920FB6E4
:100120000F9211240BB60F922F933F934F935F932F
:100130006F937F938F939F93AF93BF93EF93FF93AF
:10014000C4DFFF91EF91BF91AF919F918F917F910C
:100150006F915F914F913F912F910F900BBE0F9038
:100160000FBE0F901F9018951F920F920FB60F920F
:1001700011240BB60F922F933F934F935F936F937E
:100180007F938F939F93AF93BF93EF93FF939DDFE5
:10019000FF91EF91BF91AF919F918F917F916F915F
:1001A0005F914F913F912F910F900BBE0F900FBE1B
:0A01B0000F901F901895F894FFCFF0
:00000001FF
