:1000000045C000004BC0000049C0000047C00000D0
:1000100045C0000043C0000041C000003FC00000D8
:100020003DC000003BC0000039C0000037C00000E8
:1000300035C0000033C0000031C000002FC00000F8
:100040002DC000002BC0000029C0000027C0000008
:1000500025C0000023C0000021C000001FC0000018
:100060001DC000001BC0000019C0000017C0000028
:1000700015C0000013C0000011C000000FC0000038
:100080000DC000000BC0000009C0000011241FBEFD
:10009000CFEFD0E1DEBFCDBF58D084C0B1CF20E0DC
:1000A00030E008C0EFECF7E03197F1F700C0000056
:1000B0002F5F3F4F28173907ACF308958FEF87BBA9
:1000C00087B3877F87BB88B3816088BB82E58DB9A2
:1000D00008958FB9779BFECF089598B321E030E063
:1000E00002C0220F331F8A95E2F72095292328BBEF
:1000F000089598B321E030E002C0220F331F8A95A3
:10010000E2F7292B28BB089580E0E7DF89E0E1DFF3
:100110008FEFDFDF80E0EDDF80E0DFDF8AE0D9DF37
:100120008FE0D7DF80E0E5DF80E0D7DF8BE0D1DF55
:1001300084E0CFDF80E0DDDF80E0CFDF8CE0C9DF6F
:1001400081E0C7DF80E0D5CF0895CF9381E087BB02
:10015000B5DFDADFC1E009C080E0BFDF8C2FB9DF97
:1001600080E0B7DF80E0C5DFCF5FC530A8F388EE61
:1001700093E095DFC1E00DC080E0AFDF8C2FA9DFF9
:1001800085E08C1BA6DF80E0B4DF88EE93E087DF9C
:10019000CF5FC53088F388EE93E081DF81E090E0A7
:0801A000CF910895F894FFCF00
:00000001FF
